:020000040800F2
:10000000300400204501000847070008EB04000801
:1000100043070008B9010008B1090008000000000A
:10002000000000000000000000000000610800085F
:10003000BD01000800000000490700084D09000844
:100040005F0100085F0100085F0100085F01000810
:100050005F0100085F0100085F0100085F01000800
:100060005F0100085F0100085F0100085F010008F0
:100070005F0100085F0100085F0100085F010008E0
:100080005F0100085F0100085F0100085F010008D0
:100090005F0100085F0100085F0100085F010008C0
:1000A0005F0100085F0100085F0100085F010008B0
:1000B0005F0100085F0100085F0100085F010008A0
:1000C0005F0100085F0100085F0100085F01000890
:1000D0005F0100085F0100085F0100085F01000880
:1000E0005F0100085F0100085F0100085F01000870
:1000F0005F0100085F0100085F0100085F01000860
:100100005F0100085F0100085F0100085F0100084F
:100110005F0100085F0100085F0100085F0100083F
:100120005F0100085F0100085F0100085F0100082F
:10013000DFF80CD000F02EF8004800475D0B0008F7
:10014000300400200648804706480047FEE7FEE7E7
:10015000FEE7FEE7FEE7FEE7FEE7FEE7FEE7FEE777
:10016000510900083101000830B50B460146002056
:100170002022012409E021FA02F59D4205D303FA69
:1001800002F5491B04FA02F52844151EA2F10102EA
:10019000F1DC30BD064C074D06E0E06840F001039D
:1001A00094E8070098471034AC42F6D3FFF7C4FF39
:1001B000F80B0008180C000800BFFEE770470000AD
:1001C00070B504460D460121194800F0FFF900BF43
:1001D0001849174800F097F90028F9D00022A0210B
:1001E000134800F0A3FA00BF1349114800F08BF93F
:1001F0000028F9D021460E4800F0A1FA00BF0E49B0
:10020000891E0B4800F07FF90028F8D029460848DD
:1002100000F095FA00BF0849891C054800F073F901
:100220000028F8D00121024800F0DCF970BD000080
:1002300000540040010003008200070070B506462C
:100240000C46154601211C4800F0C0F900BF1B49AF
:10025000194800F058F90028F9D00022A0211648CA
:1002600000F064FA00BF1649134800F04CF900286A
:10027000F9D03146104800F062FA00BF1049891EDB
:100280000D4800F040F90028F8D00EE021780A4827
:1002900000F055FA00BF0A49891C074800F033F9FD
:1002A0000028F8D0641C681EC5B2002DEED10121D3
:1002B000014800F097F970BD0054004001000300B0
:1002C0008200070070B506460D46144601212D48F0
:1002D00000F07CF900BF2C492A4800F014F90028EE
:1002E000F9D00022A021274800F020FA00BF2749BA
:1002F000244800F008F90028F9D03146214800F0E0
:100300001EFA00BF2149891E1E4800F0FCF8002893
:10031000F8D001211B4800F059F900BF1A491948CB
:1003200000F0F1F80028F9D00122A021154800F0D2
:10033000FDF900BF1449491C124800F0E4F80028F8
:10034000F8D014E0012C03D100210E4800F0CFF8C2
:1003500000BF0D493F310B4800F0D5F80028F8D018
:10036000084800F0DFF928706D1C601EC4B2002C34
:10037000E8D10121034800F035F90121014800F0DE
:10038000B6F870BD00540040010003008200070071
:1003900010B500BF01210D4800F018F900BF0C494D
:1003A0000A4800F02BF90028F9D00022A0210748C4
:1003B00000F0BCF90649491C044800F01FF9002868
:1003C000E8D00121014800F00DF910BD00540040B3
:1003D000010000102DE9F041024600250026002012
:1003E00000230024002791F803C00CF00F0591F8BA
:1003F00003C00CF0100CBCF1000F03D091F802C048
:100400004CEA050591F800C0BCF1000F31D014682A
:1004100000202BE04FF0010C0CFA00F3B1F800C003
:100420000CEA03069E4220D183004FF00F0C0CFA19
:1004300003F7BC4305FA03FC4CEA040491F803C03B
:10044000BCF1280F06D14FF0010C0CFA00FCC2F8E9
:1004500014C00AE091F803C0BCF1480F05D14FF079
:10046000010C0CFA00FCC2F810C0401C0828D1D3C3
:100470001460B1F800C0BCF1FF0F34DD54680020F7
:100480002EE000F1080C4FF0010808FA0CF3B1F867
:1004900000C00CEA03069E4221D183004FF00F0CEE
:1004A0000CFA03F7BC4305FA03FC4CEA040491F888
:1004B00003C0BCF1280F05D100F1080C08FA0CF8B4
:1004C000C2F8148091F803C0BCF1480F07D100F1C5
:1004D000080C4FF0010808FA0CF8C2F81080401C14
:1004E0000828CED35460BDE8F08100BFFEE721B1FB
:1004F000028842F48062028004E002884FF6FF33F3
:100500001A400280704770B502460024002500237F
:100510000020958A138B1B0445EA030626F07F44CE
:1005200004EA01068E4201D1012000E0002070BDE6
:1005300021B1028842F00102028004E002884FF6F5
:10054000FE731A400280704700B585B00121082073
:1005500000F00CF90121480500F0F8F84020ADF852
:1005600010001C208DF8130003208DF8120004A940
:100570001348FFF72FFF8020ADF8100004A91048A2
:10058000FFF728FF4FF48060ADF80A000001ADF8D6
:100590000C000C4800904BF6FF70ADF806000020F0
:1005A000ADF804005F20ADF808006946064800F089
:1005B00043F801210448FFF7BBFF05B000BD000070
:1005C000000C0140801A06000054004021B102884E
:1005D00042F48072028004E002884FF6FF631A4002
:1005E0000280704721B1028842F40072028004E068
:1005F00002884FF6FF531A40028070470CB502463E
:10060000002000230193009300920B0F019321F02F
:100610007F41019B1BB1009B1433009303E0090C45
:10062000009B18330093009B1B680B400BB101200B
:1006300000E000200CBD00002DE9F04385B0044629
:100640000D460026B1460427DFF8CC80A6884FF679
:10065000C0700640684600F099F8DDF808802F4821
:10066000B8FBF0F01FFA80F946EA0906A680208858
:100670004FF6FE71084020800026294928688842EC
:100680000CD828684000B8FBF0F087B2042F00DADD
:1006900004273E4309F10100208427E0E8884BF657
:1006A000FF71884206D1286800EB4000B8FBF0F0EB
:1006B00087B209E0286800EBC00101EB0010B8FB2D
:1006C000F0F087B247F48047C7F30B0008B947F052
:1006D000010747F4004006434FF4967009FB00F011
:1006E0004FF47A7190FBF1F0401C2084A68320889F
:1006F00040F00100208026884FF6F5300640A8889B
:100700006989084306432680A889298908432081EE
:1007100005B0BDE8F083000000127A0040420F00EF
:10072000A08601000146088AC0B2704712B141F0AC
:10073000010102E04FF6FE73194001827047018209
:10074000704700BFFEE770477047000029B1064AB6
:10075000D2690243044BDA6104E0034AD26982435E
:10076000014BDA61704700000010024029B1064ACF
:1007700092690243044B9A6104E0034A92698243FE
:10078000014B9A61704700000010024030B5002113
:100790000022002400232D4D6D6805F00C0121B1CD
:1007A000042905D0082923D105E0294D056022E060
:1007B000274D05601FE0254D6D6805F47012234D2F
:1007C0006D6805F48034022505EB92421CB9214D79
:1007D000554305600BE01D4D6D6805F400351DB1F6
:1007E0001C4D5543056002E0194D5543056002E07C
:1007F000174D056000BF00BF144D6D6805F0F00196
:100800000909154D6B5C0568DD4045600F4D6D684D
:1008100005F4E061090A104D6B5C4568DD408560B8
:100820000A4D6D6805F46051C90A0B4D6B5C456853
:10083000DD40C560054D6D6805F44041890B074DED
:100840006B5CC568B5FBF3F5056130BD0010024077
:1008500000127A0000093D00000000201000002076
:10086000704710B500F002F810BD00000CB5002074
:10087000019000903348006840F4803031490860AE
:1008800000BF3048006800F4003000900198401C20
:100890000190009818B90198B0F5A06FF1D12948DE
:1008A000006800F4003010B10120009001E0002049
:1008B00000900098012843D12348006840F01000C0
:1008C000214908600846006820F0030008600846D7
:1008D000006840F0020008601A4840681949486002
:1008E0000846406848600846406840F480604860B8
:1008F0000846406820F47C1048600846406840F490
:10090000E81048600846006840F08070086000BF4A
:100910000C48006800F000700028F9D009484068D1
:1009200020F00300074948600846406840F0020094
:10093000486000BF0348406800F00C000828F9D167
:100940000CBD000000100240002002407047000073
:1009500010B51348006840F00100114908600846CE
:100960004068104908400E494860084600680E4932
:1009700008400B4908600846006820F480200860A1
:100980000846406820F4FE0048604FF41F0088606D
:10099000FFF767FF4FF000600449086010BD0000DA
:1009A000001002400000FFF8FFFFF6FE08ED00E037
:1009B00000BFFEE70FB4054B10B503A9044A029827
:1009C00000F018F810BC5DF814FB0000490B00089B
:1009D0001C00002002E008C8121F08C1002AFAD13A
:1009E00070477047002001E001C1121F002AFBD1AF
:1009F000704700002DE9FF4F89B09B460446002553
:100A000006E025280BD05A460B999047641C6D1CB4
:100A100020780028F5D10DB02846BDE8F08F0027DA
:100A2000B8460122474900E0074314F8013F203B44
:100A300002FA03F00842F7D120782E2819D114F8D1
:100A4000010F47F004072A280ED06FF02F022078FC
:100A5000A0F1300109290CD808EB880102EB410113
:100A600000EB0108641CF2E70A98641C50F8048B40
:100A70000A9020780028CED0642808D0692806D0B3
:100A800075281ED05A460B9990476D1C58E00A995C
:100A90004FF00A0901C90A91002802DA40422D21CB
:100AA00002E0390504D52B218DF82010012103E047
:100AB000F90704D02021F7E78A4608AE0DE00021AF
:100AC000FAE70A994FF00A0901C90A91F7E749467E
:100AD000FFF74AFB303106F8011D0028F7D1ADEBD6
:100AE000060000F12009780701D44FF00108C8453D
:100AF00002DDA8EB090000E000208046002706E0A8
:100B000008A85A46C05D0B9990476D1C7F1C57453D
:100B1000F6DB04E030205A460B9990476D1CB8F183
:100B20000001A8F10108F5DC05E016F8010B5A46B2
:100B30000B9990476D1CB9F10001A9F10109F4DC92
:100B4000641C65E70928010038B504468DF80000EB
:100B500069460320ABBE204638BD0000002416A025
:100B6000FFF728FFFFF7F0FC37210B20FFF728FBEA
:100B7000FFF70EFC34210C20FFF722FBFFF708FCE7
:100B8000082215491020FFF759FBFFF701FC082246
:100B900012491020FFF796FB00BF06E00F48015DE9
:100BA0000FA0FFF707FF601CC4B2082CF6DB0DA0F6
:100BB000FFF700FF00BFFEE7E8BF99E698AFE4B893
:100BC00080E4B8AA494943E9809AE8AEAFE5AE9E11
:100BD000E9AA8C0A00000000140000202000002078
:100BE0002564200031313131313131313131313110
:100BF0003131313131310000180C00080000002083
:100C000020000000D4090008380C00082000002053
:100C100010040000E40900080000000001020304C1
:100C20000102030406070809020406080405060772
:080C300008090A0B0000000096
:0400000508000131BD
:00000001FF
